:060000000A128A11122809
:10000800FE00030EF1000408F2000A08F300831250
:1000180003137F08F4000A128A113A2C0A128A1173
:100028001528F601F701F8018313203084004830C1
:100038000A128A113A250A128A11A0308400D9308E
:100048000A128A113A2583010A128A110229831297
:100058000313DD005D088400831300086F0603198D
:100068003A285D088400000A031DEE285D08333E27
:10007800840006300002031CEE285D08333E84002D
:100088000008FE3EC800FF3003180030C9005D08B4
:100098000A128A1151230A128A118312031349087A
:1000A800DC004808DB00FF305B05D60000305C054B
:1000B800D7005D08333E840083130008FE3E5D07C9
:1000C800D800580884000008D900DA0157085A06F1
:1000D800031D702856085906031DEE285C08D70032
:1000E8005B08D6005708D600D7015D08333E840068
:1000F8000008FF3E5D07D800580884000008D900B2
:10010800DA0157085A06031D8B28560859060319A1
:10011800A928EE285D080A128A11A0210A128A115C
:10012800B628831203135D080A128A11CD220A1217
:100138008A11B628F501F50A831203135D080A121D
:100148008A1124250A128A11B628831203135D0A1C
:10015800840083130008033A03198E28133A0319FD
:1001680095289E28831203135D08353E8400831367
:100178000008FE3EC800FF3003180030C9005D08C3
:100188000A128A1151230A128A1183120313490889
:10019800DC004808DB005B08D6005D08353E8400BB
:1001A80083130008FE3E5D07D700570884005608F1
:1001B80080005C08D6005D08353E84000008FF3EDC
:1001C8005D07D70057088400560880005D08343E54
:1001D800840080015D080A128A118B24831203139C
:1001E8005D08363E8400831380015D08333E840039
:1001F80080015D08323E8400800108000A128A11DD
:10020800E5240A128A11803083120313D6002530A0
:10021800D7000A128A11CE230A128A118B168B175D
:100228000B17831603138C160C1203308312031357
:10023800E600660883160313D70000300A128A11F5
:10024800C3240A128A1183120313E6006608EF001A
:100258006F08E6006608A00001300A128A11C3245C
:100268000A128A1183120313E6006608A3000230FB
:100278000A128A11C3240A128A1183120313E60090
:100288006608A200640000300A128A1106250A12C4
:100298008A11831203134908EE004808ED00013063
:1002A8000A128A1106250A128A11831203134908B1
:1002B800EC004808EB0002300A128A1106250A12DF
:1002C8008A11831203134908EA004808E900033039
:1002D8000A128A1106250A128A1183120313490881
:1002E800E8004808E7006E08A1006D08A0006C0847
:1002F800A3006B08A2006A08A5006908A4006808A2
:10030800A7006708A6008316031356080319952942
:10031800A0300A128A112B200A128A11831603139D
:10032800D60158080319462983120313281C9E294D
:10033800061446290610462983120313D500D30153
:10034800D401CD01CE015508023E84008313000874
:10035800CA00CB014A08CB00CA015508033E8400F5
:1003680000084A07CF000030031801304B07D000BF
:100378005508043E84000008CA00CB014A08CB0097
:10038800CA015508053E840000084A07D10000301C
:10039800031801304B07D2000330CD000030CE00E7
:1003A80051084F07CA0052080318520A5007CB00D9
:1003B80000304B02143003194A020318352A003062
:1003C80052021730031951020318352AD301D401F8
:1003D80052085402031DF229510853020318212A16
:1003E8004F085307CA0003144A0D203E8400000832
:1003F800CB004D085507CC004C0884004B08800002
:100408004F085307CA004A07203E84000008CB0063
:100418004D08013E5507CC004C0884004B0880006D
:100428000230CD070318CE0A0030CE070130D307BB
:100438000318D40A0030D407EC295308CA004A0725
:10044800CB005508023E84004B0880005308CA00C0
:100458004A07053ECB005508353E84004B0880000E
:1004680008000230CA004A08F50055080A128A1125
:100478002425080083120313D101CB1F502AC80971
:10048800C909CA09CB09C80A0319C90A0319CA0A3A
:100498000319CB0AD101D10ACF1F612ACC09CD0992
:1004A800CE09CF09CC0A0319CD0A0319CE0A0319BC
:1004B800CF0A0130F5007508D1060030D5000030AC
:1004C800D4000030D3000030D2004B084A0449045D
:1004D80048040319B62AD001D00ACB1B812A01305F
:1004E800F5000310C80DC90DCA0DCB0DF50B752A03
:1004F8000130F5007508D007712A0130F5000310A6
:10050800D20DD30DD40DD50DF50B832A4B084F0210
:10051800031D982A4A084E02031D982A49084D02CD
:10052800031D982A48084C02031CA92A4808CC0233
:100538004908031C490FCD024A08031C4A0FCE0282
:100548004B08031C4B0FCF02521401300310CB0C85
:10055800CA0CC90CC80CFF3E031DAA2A0130D002E0
:10056800031D812A51080319C42AD209D309D409C1
:10057800D509D20A0319D30A0319D40A0319D50ACB
:100588005508CB005408CA005308C9005208C800CF
:10059800080083120313D5005508023E8400831314
:1005A8000008CA00CB014A08CB00CA015508033E1F
:1005B800840000084A07D3000030031801304B07B5
:1005C800D4005508063E84000008CA004A08CF0037
:1005D8004F085307CA0054080318540ACB000030C8
:1005E8004B02143003194A020318482B0730CA007B
:1005F8004A08D2005408D1005308D000262B5208CC
:10060800013E5507CA004A0884000008CB0052087A
:100618005507CC004C0884000008CD005008CE00D7
:100628004E07203E84004B088000840A4D08800055
:100638000230CA004A08D2070130D0070318D10A8D
:100648000030D10702304F02031C2C2B01302D2B18
:1006580000305307CA0054080318540ACB004B084B
:100668005102031D392B4A085002031C032B083082
:10067800CA005508353E84004A0880005508383EAF
:1006880084008001800A08000230CA004A08F50088
:1006980055080A128A112425080083120313D3006F
:1006A800D401D50153080319C72BFF30D400FF30FC
:1006B800D5004908803AFF0080307F02031D662B71
:1006C80001304802031CC72B83120313530884000C
:1006D80083130008CA00CB01FF305405CC0000305A
:1006E8005505CD004A084C06CE004B084D06CF00F4
:1006F8005508D1005408D0005108D000D101500845
:10070800D100D0014E085007D4004F0803184F0AF3
:100718005107D5000130CA004A08D307D201083072
:1007280052020318B62B541CA72B5508CB005408AB
:10073800CA000310CB0CCA0C01304A06D400A03002
:100748004B06D500AE2B01300310D50CD40CFF3E60
:10075800031DA82B0130CA004A08D20708305202EC
:10076800031C972BFF30C8070318C90AFF30C907B5
:100778004908803AFF0080307F02031DC52B0130F5
:1007880048020318682B831203135508C90054083C
:10079800C80008008316031387170713831203136F
:1007A80007175708D9005608D8000310D80DD90DD7
:1007B8000310D80DD90D5808C8005908C900CA0136
:1007C800CB010030DA002D30DB003130DC000130A5
:1007D800DD005708DF005608DE000310DE0DDF0DD0
:1007E8005E08E0005F08E100E201E3016008DA0763
:1007F80061080318610F012C022CDB07620803183B
:10080800620F072C082CDC0763080318630ADD074E
:100818005D08CF005C08CE005B08CD005A08CC000C
:100828000A128A113E22831203134808FF3EE4008D
:1008380049080318013EFF3EE500243083160313E0
:10084800980090308312031398000830831603171A
:100858008700831203136508831603139A00831213
:100868000313640883160313990008000B198B1EE1
:100878005B2C0B3078020318462C0130F00070080E
:10088800F807492CF801F701F70A0130831603131A
:10089800D207FF30520757020318592C023053026F
:1008A800031C592CD601D60A5A2CD6010B118312D7
:1008B8008C1E7F2C1819622C981C642C1812181680
:1008C80083128C1E7F2C83160313D20131305302FE
:1008D8000318D301831203131A08F00083160313B5
:1008E8005308A03E84007008831380000130F00094
:1008F8007008D307642C8C017408FF0073088A0001
:1009080072088400710E8300FE0E7E0E0900F50049
:100918008312031318128316031398168B13750882
:10092800353E8400831300088312C8007508343EDE
:1009380084000008C900480849020318BC2C75083F
:10094800343E84008313000875078312C8004808E2
:100958008400000899000130C8007508343E8400FE
:1009680048088007831203130C1A932C0000B62C36
:100978008B177508353E840080011816080083120D
:100988000313C800C92C83120313640083160317CA
:100998008C18C72C831203134808831203178D0081
:1009A8003F30F5007508831603178C050C140310E7
:1009B8000C180314003003180130831203170C08B5
:1009C80008008316031387128312031387128316F2
:1009D800031305148514051585150F3083160317A1
:1009E8008800890183160313860183120313860185
:1009F800C1309F001F118030831603139F0087307A
:100A08008100080083120313CA004A08F500F50D97
:100A1800F50D1F087506C33975069F005330F5009C
:100A2800F50B142D831203139F149F18192D1E08FC
:100A3800C900831603131E0883120313C800080095
:100A480083120313C900490A8400831380177508A9
:100A5800C8004908023E8400480880000530C800E4
:100A68004908353E84004808800008006400800179
:0C0A7800840A04060319003404063B2D18
:02400E00FAFFB7
:10420000010025008000FF00FF00FF00FF00FF000D
:00000001FF
