:020000040000FA
:060000000A128A11EB2F29
:1005F20064008001840A0406031900340406FA2AFE
:10060200F200720A8400831380177008F1007208E6
:10061200023E8400710880000530F1007208353E08
:100622008400710880000800F1006400831603173B
:100632008C181C2B1D2B162B7108831203178D008F
:100642003F30F0007008831603178C050C148312D8
:1006520003170C080800F3007308F200F20DF20D04
:10066200831203131F087206C33972069F005330A8
:10067200F200F20B3A2B831203139F149F18422BA2
:10068200432B3F2B1E08F100831603131E08F000B4
:10069200080083160313871283120313871283162B
:1006A200031305148514051585150F3083160317DA
:1006B20088008901831603138601831203138601BE
:1006C200C1309F001F118030831603139F008730B3
:1006D20081000800F2008312031318128316031319
:1006E20098168B138E2B7208343E84000008720712
:1006F200F000700884000008831299000130F000B5
:100702007208343E840070088007882B0000831230
:1007120003130C1E8D2B8E2B872B7208353E840003
:1007220083130008F0007208343E84000008F100D0
:1007320070087102031C9E2B9F2B742B8B1772085F
:10074200353E8400800183121816080083160313B5
:10075200871707138312031307175208D40051088F
:10076200D3000310D30DD40D0310D30DD40D5308B1
:10077200F0005408F100F201F3010030D5002D30F1
:10078200D6003130D7000130D8005208DA005108C3
:10079200D9000310D90DDA0D5908DB005A08DC0024
:1007A200DD01DE015B08D5075C0803185C0FDA2B5C
:1007B200DB2BD6075D0803185D0FE02BE12BD70773
:1007C2005E0803185E0AD8075808F7005708F600B3
:1007D2005608F5005508F4000A128A1109250A1272
:1007E2008A117008FF3EF90071080318013EFF3EAE
:1007F200FA002430831603139800903083120313F7
:10080200980008308316031787007A0883160313AB
:100812009A00790899000800FB00FC01FD017B08A1
:100822000319142C152C7A2CFF30FC00FF30FD002C
:100832007108803AFF0080307F02031D222C0130B4
:1008420070020318252C262C272C7A2C7B08840076
:1008520083130008F200F301FF307C05F40000303E
:100862007D05F50072087406F60073087506F70038
:100872007D08F9007C08F8007908F800F901780889
:10088200F900F80176087807FC0077080318770A60
:100892007907FD000130F2007208FB07FA017C1CA7
:1008A200532C542C622C7D08F3007C08F2000310B8
:1008B200F30CF20C01307206FC00A0307306FD004E
:1008C200692C01300310FD0CFC0CFF3E031D632C50
:1008D2000130F2007208FA0708307A02031C722C07
:1008E200732C502CFF30F0070318F10AFF30F10788
:1008F200192C7D08F1007C08F00008008312031314
:10090200D1005108023E840083130008F300F40171
:100912007308F400F3015108033E840000087307D2
:10092200CF000030031801307407D0005108063E92
:1009320084000008F3007308CD004D084F07F30050
:1009420050080318500AF4000030740214300319DE
:1009520073020318AD2CAE2CFE2C0730F300730883
:10096200CE005008CC004F08CB00D92C4E085107BE
:10097200F300730A84000008F4004E085107F500E2
:10098200750884000008F6004B08F7007707203E40
:10099200840074088000840A760880000230F30024
:1009A2007308CE070130CB070318CC0A0030CC07FE
:1009B20002304D020318DE2CE02C0130E12C003015
:1009C2004F07F30050080318500AF40074084C0251
:1009D200031DED2C73084B02031CF02CF12CB72CD9
:1009E2000830F3005108353E840073088000510836
:1009F200383E84008001800A082D0230F30073081B
:100A0200F00051080A128A1101230A128A11080001
:100A120083120313CC01F31F0F2D102D1D2DF0098E
:100A2200F109F209F309F00A0319F10A0319F20AAA
:100A32000319F30ACC01CC0AF71F202D212D302DEA
:100A4200F409F509F609F709F40A0319F50A031975
:100A5200F60A0319F70A0130F8007808CC060030CC
:100A6200D0000030CF000030CE000030CD0073083F
:100A720072047104700403193F2D402D8D2DCB019A
:100A8200CB0A502D0130F8000310F00DF10DF20DDC
:100A9200F30DF80B452D0130F8007808CB07F31F52
:100AA200532D542D432D0130F8000310CD0DCE0DE2
:100AB200CF0DD00DF80B562D73087702031D6B2D49
:100AC20072087602031D6B2D71087502031D6B2DD2
:100AD20070087402031C6E2D6F2D7E2D7008F402B7
:100AE2007108031C710FF5027208031C720FF602E3
:100AF2007308031C730FF7024D1401300310F30C3B
:100B0200F20CF10CF00CFF3E031D7F2D0130CB02E5
:100B1200031D8C2D8D2D542D4C080319912D922DD2
:100B22009D2DCD09CE09CF09D009CD0A0319CE0AD0
:100B32000319CF0A0319D00A5008F3004F08F20034
:100B42004E08F1004D08F00008000A128A114A23EB
:100B52000A128A11803083120313D1002530D20089
:100B62000A128A11A7230A128A118B168B170B17E6
:100B7200831603138C160C12033083120313DF0047
:100B82005F0883160313D70000300A128A11152357
:100B92000A128A1183120313DF005F08E800680853
:100BA200DF005F08A00001300A128A1115230A1221
:100BB2008A1183120313DF005F08A30002300A12B6
:100BC2008A1115230A128A1183120313DF005F08A8
:100BD200A200640000300A128A112C230A128A1120
:100BE200710883120313E7007008E60001300A124D
:100BF2008A112C230A128A11710883120313E50049
:100C02007008E40002300A128A112C230A128A1197
:100C1200710883120313E3007008E20003300A1222
:100C22008A112C230A128A11710883120313E1001C
:100C32007008E0006708A1006608A0006508A3002C
:100C42006408A2006308A5006208A4006108A70066
:100C52006008A6008316031356080319312E322E9C
:100C62003B2EA0300A128A1107270A128A11831614
:100C72000313D601580803193F2E402EEA2D831282
:100C82000313281C452E462E482E0614EA2D061064
:100C9200EA2D0A128A11002883120313D300CB0112
:100CA200CC015308023E840083130008F300F401D0
:100CB2007308F400F3015308033E8400000873072D
:100CC200CD000030031801307407CE005308043EF3
:100CD20084000008F300F4017308F400F3015308E0
:100CE200053E840000087307CF000030031801306E
:100CF2007407D0000330CB000030CC004F084D0702
:100D0200F30050080318500A4E07F4000030740232
:100D120014300319730203188F2E902EFC2E00300C
:100D22005002173003194F020318982E992EFC2EE9
:100D3200D101D201DE2E5108F30001300310F30D70
:100D4200FF3E031D9F2E21307307F4004D08F5006E
:100D520075077407F600760884000008F7004B0850
:100D62005307F80078088400770880005108F300E0
:100D720001300310F30DFF3E031DBA2E203073071E
:100D8200F4004D08F50075077407F6007608840034
:100D92000008F7004B085307F800780A8400770828
:100DA20080000230CB070318CC0A0030CC07013098
:100DB200D1070318D20A0030D20750085202031D8D
:100DC200E42E4F085102031CE72EE82E9C2E5108F8
:100DD200F3007307F4005308023E84007408800095
:100DE2005108F3007307053EF4005308353E8400B2
:100DF20074088000062F0230F3007308F0005308D5
:100E02000A128A1101230A128A110800831203139B
:100E1200DB005B0884008313000868060319122FA5
:100E2200132F1A2F5B088400000A031D192F1A2F93
:100E3200D52F5B08333E840006300002031C222FAC
:100E4200232FD52F5B08333E84000008FE3EF000BE
:100E5200FF3003180030F1005B080A128A110D24DA
:100E62000A128A11710883120313DA007008D9007A
:100E7200FF305905D40000305A05D5005B08333ED7
:100E82008400831300085B07D6005608FE3E8400E8
:100E92000008D700D80155085806031D522F5408E0
:100EA2005706031D552F562FD52F5A08D50059081E
:100EB200D4005508D400D5015B08333E84000008F5
:100EC2005B07D6005608FF3E84000008D700D80111
:100ED20055085806031D6F2F54085706031D722F1D
:100EE200732FD52F8B2F5B080A128A114D260A12F7
:100EF2008A119D2F5B080A128A117F240A128A1115
:100F02009D2FF001F00A5B080A128A1101230A12CE
:100F12008A119D2F5B0A84000008D400D501550870
:100F2200003A0319952F822F5408033A0319742F9C
:100F3200133A03197B2F822F831203135B08353E6A
:100F4200840083130008FE3EF000FF3003180030D7
:100F5200F1005B080A128A110D240A128A11710823
:100F620083120313DA007008D9005908D4005B0811
:100F7200353E8400831300085B07D5005508FE3E0A
:100F82008400540880005A08D4005B08353E84006F
:100F920000085B07D5005508FF3E84005408800016
:100FA2005B08343E840080015B080A128A116B23BD
:100FB2000A128A11831203135B08363E84008313DC
:100FC20080015B08333E840080015B08323E84006E
:100FD200800108008313203084004B300A128A11EA
:100FE200F9220A128A11A0308400D9300A128A1119
:0E0FF200F9220A128A1183010A128A11A62D11
:02400E00FA3F77
:10420000010025008000FF00FF00FF00FF00FF000D
:00000001FF
